{"contracts/Counter.sol":{"Counter":{"abi":[{"anonymous":false,"inputs":[{"indexed":false,"internalType":"uint256","name":"amount","type":"uint256"},{"indexed":false,"internalType":"uint256","name":"when","type":"uint256"}],"name":"CountDecreased","type":"event"},{"anonymous":false,"inputs":[{"indexed":false,"internalType":"uint256","name":"amount","type":"uint256"},{"indexed":false,"internalType":"uint256","name":"when","type":"uint256"}],"name":"CountIncreased","type":"event"},{"inputs":[],"name":"count","outputs":[{"internalType":"uint256","name":"","type":"uint256"}],"stateMutability":"view","type":"function"},{"inputs":[],"name":"decreaseByOne","outputs":[],"stateMutability":"nonpayable","type":"function"},{"inputs":[],"name":"increaseByOne","outputs":[],"stateMutability":"nonpayable","type":"function"}],"evm":{"bytecode":{"linkReferences":{},"object":"608060405234801561001057600080fd5b50610315806100206000396000f3fe608060405234801561001057600080fd5b50600436106100415760003560e01c806306661abd1461004657806393158b0e14610064578063974ba1e21461006e575b600080fd5b61004e610078565b60405161005b9190610187565b60405180910390f35b61006c61007e565b005b610076610118565b005b60005481565b60008054116100c2576040517f08c379a00000000000000000000000000000000000000000000000000000000081526004016100b9906101ff565b60405180910390fd5b60016000808282546100d4919061024e565b925050819055507f9f823ef4ff6c0c3cc6b78e145c4a8f0eb7d3e580edcbcac1f96a5a2b2de7b8136000544260405161010e929190610282565b60405180910390a1565b600160008082825461012a91906102ab565b925050819055507f4d83071bd939c85dc5ac3b242dd30a607f340a2b0671e8d3e3a3878b5f05e63360005442604051610164929190610282565b60405180910390a1565b6000819050919050565b6101818161016e565b82525050565b600060208201905061019c6000830184610178565b92915050565b600082825260208201905092915050565b7f63616e6e6f742064656372656173652062656c6f772030000000000000000000600082015250565b60006101e96017836101a2565b91506101f4826101b3565b602082019050919050565b60006020820190508181036000830152610218816101dc565b9050919050565b7f4e487b7100000000000000000000000000000000000000000000000000000000600052601160045260246000fd5b60006102598261016e565b91506102648361016e565b925082820390508181111561027c5761027b61021f565b5b92915050565b60006040820190506102976000830185610178565b6102a46020830184610178565b9392505050565b60006102b68261016e565b91506102c18361016e565b92508282019050808211156102d9576102d861021f565b5b9291505056fea2646970667358221220792a9efa35864f78d0f14ef871c6eee4dc7ffd2873d371eee04f70bc689b4c1164736f6c63430008180033","opcodes":"PUSH1 0x80 PUSH1 0x40 MSTORE CALLVALUE DUP1 ISZERO PUSH2 0x10 JUMPI PUSH1 0x0 DUP1 REVERT JUMPDEST POP PUSH2 0x315 DUP1 PUSH2 0x20 PUSH1 0x0 CODECOPY PUSH1 0x0 RETURN INVALID PUSH1 0x80 PUSH1 0x40 MSTORE CALLVALUE DUP1 ISZERO PUSH2 0x10 JUMPI PUSH1 0x0 DUP1 REVERT JUMPDEST POP PUSH1 0x4 CALLDATASIZE LT PUSH2 0x41 JUMPI PUSH1 0x0 CALLDATALOAD PUSH1 0xE0 SHR DUP1 PUSH4 0x6661ABD EQ PUSH2 0x46 JUMPI DUP1 PUSH4 0x93158B0E EQ PUSH2 0x64 JUMPI DUP1 PUSH4 0x974BA1E2 EQ PUSH2 0x6E JUMPI JUMPDEST PUSH1 0x0 DUP1 REVERT JUMPDEST PUSH2 0x4E PUSH2 0x78 JUMP JUMPDEST PUSH1 0x40 MLOAD PUSH2 0x5B SWAP2 SWAP1 PUSH2 0x187 JUMP JUMPDEST PUSH1 0x40 MLOAD DUP1 SWAP2 SUB SWAP1 RETURN JUMPDEST PUSH2 0x6C PUSH2 0x7E JUMP JUMPDEST STOP JUMPDEST PUSH2 0x76 PUSH2 0x118 JUMP JUMPDEST STOP JUMPDEST PUSH1 0x0 SLOAD DUP2 JUMP JUMPDEST PUSH1 0x0 DUP1 SLOAD GT PUSH2 0xC2 JUMPI PUSH1 0x40 MLOAD PUSH32 0x8C379A000000000000000000000000000000000000000000000000000000000 DUP2 MSTORE PUSH1 0x4 ADD PUSH2 0xB9 SWAP1 PUSH2 0x1FF JUMP JUMPDEST PUSH1 0x40 MLOAD DUP1 SWAP2 SUB SWAP1 REVERT JUMPDEST PUSH1 0x1 PUSH1 0x0 DUP1 DUP3 DUP3 SLOAD PUSH2 0xD4 SWAP2 SWAP1 PUSH2 0x24E JUMP JUMPDEST SWAP3 POP POP DUP2 SWAP1 SSTORE POP PUSH32 0x9F823EF4FF6C0C3CC6B78E145C4A8F0EB7D3E580EDCBCAC1F96A5A2B2DE7B813 PUSH1 0x0 SLOAD TIMESTAMP PUSH1 0x40 MLOAD PUSH2 0x10E SWAP3 SWAP2 SWAP1 PUSH2 0x282 JUMP JUMPDEST PUSH1 0x40 MLOAD DUP1 SWAP2 SUB SWAP1 LOG1 JUMP JUMPDEST PUSH1 0x1 PUSH1 0x0 DUP1 DUP3 DUP3 SLOAD PUSH2 0x12A SWAP2 SWAP1 PUSH2 0x2AB JUMP JUMPDEST SWAP3 POP POP DUP2 SWAP1 SSTORE POP PUSH32 0x4D83071BD939C85DC5AC3B242DD30A607F340A2B0671E8D3E3A3878B5F05E633 PUSH1 0x0 SLOAD TIMESTAMP PUSH1 0x40 MLOAD PUSH2 0x164 SWAP3 SWAP2 SWAP1 PUSH2 0x282 JUMP JUMPDEST PUSH1 0x40 MLOAD DUP1 SWAP2 SUB SWAP1 LOG1 JUMP JUMPDEST PUSH1 0x0 DUP2 SWAP1 POP SWAP2 SWAP1 POP JUMP JUMPDEST PUSH2 0x181 DUP2 PUSH2 0x16E JUMP JUMPDEST DUP3 MSTORE POP POP JUMP JUMPDEST PUSH1 0x0 PUSH1 0x20 DUP3 ADD SWAP1 POP PUSH2 0x19C PUSH1 0x0 DUP4 ADD DUP5 PUSH2 0x178 JUMP JUMPDEST SWAP3 SWAP2 POP POP JUMP JUMPDEST PUSH1 0x0 DUP3 DUP3 MSTORE PUSH1 0x20 DUP3 ADD SWAP1 POP SWAP3 SWAP2 POP POP JUMP JUMPDEST PUSH32 0x63616E6E6F742064656372656173652062656C6F772030000000000000000000 PUSH1 0x0 DUP3 ADD MSTORE POP JUMP JUMPDEST PUSH1 0x0 PUSH2 0x1E9 PUSH1 0x17 DUP4 PUSH2 0x1A2 JUMP JUMPDEST SWAP2 POP PUSH2 0x1F4 DUP3 PUSH2 0x1B3 JUMP JUMPDEST PUSH1 0x20 DUP3 ADD SWAP1 POP SWAP2 SWAP1 POP JUMP JUMPDEST PUSH1 0x0 PUSH1 0x20 DUP3 ADD SWAP1 POP DUP2 DUP2 SUB PUSH1 0x0 DUP4 ADD MSTORE PUSH2 0x218 DUP2 PUSH2 0x1DC JUMP JUMPDEST SWAP1 POP SWAP2 SWAP1 POP JUMP JUMPDEST PUSH32 0x4E487B7100000000000000000000000000000000000000000000000000000000 PUSH1 0x0 MSTORE PUSH1 0x11 PUSH1 0x4 MSTORE PUSH1 0x24 PUSH1 0x0 REVERT JUMPDEST PUSH1 0x0 PUSH2 0x259 DUP3 PUSH2 0x16E JUMP JUMPDEST SWAP2 POP PUSH2 0x264 DUP4 PUSH2 0x16E JUMP JUMPDEST SWAP3 POP DUP3 DUP3 SUB SWAP1 POP DUP2 DUP2 GT ISZERO PUSH2 0x27C JUMPI PUSH2 0x27B PUSH2 0x21F JUMP JUMPDEST JUMPDEST SWAP3 SWAP2 POP POP JUMP JUMPDEST PUSH1 0x0 PUSH1 0x40 DUP3 ADD SWAP1 POP PUSH2 0x297 PUSH1 0x0 DUP4 ADD DUP6 PUSH2 0x178 JUMP JUMPDEST PUSH2 0x2A4 PUSH1 0x20 DUP4 ADD DUP5 PUSH2 0x178 JUMP JUMPDEST SWAP4 SWAP3 POP POP POP JUMP JUMPDEST PUSH1 0x0 PUSH2 0x2B6 DUP3 PUSH2 0x16E JUMP JUMPDEST SWAP2 POP PUSH2 0x2C1 DUP4 PUSH2 0x16E JUMP JUMPDEST SWAP3 POP DUP3 DUP3 ADD SWAP1 POP DUP1 DUP3 GT ISZERO PUSH2 0x2D9 JUMPI PUSH2 0x2D8 PUSH2 0x21F JUMP JUMPDEST JUMPDEST SWAP3 SWAP2 POP POP JUMP INVALID LOG2 PUSH5 0x6970667358 0x22 SLT KECCAK256 PUSH26 0x2A9EFA35864F78D0F14EF871C6EEE4DC7FFD2873D371EEE04F70 0xBC PUSH9 0x9B4C1164736F6C6343 STOP ADDMOD XOR STOP CALLER "},"methodIdentifiers":{"count()":"06661abd","decreaseByOne()":"93158b0e","increaseByOne()":"974ba1e2"}}}}}