{
  "_format": "hh-sol-artifact-1",
  "contractName": "StudentRegistry",
  "sourceName": "contracts/StudentRegistry.sol",
  "abi": [
    {
      "anonymous": false,
      "inputs": [
        {
          "indexed": true,
          "internalType": "address",
          "name": "oldOwner",
          "type": "address"
        },
        {
          "indexed": true,
          "internalType": "address",
          "name": "newOwner",
          "type": "address"
        }
      ],
      "name": "ChangeOwner",
      "type": "event"
    },
    {
      "anonymous": false,
      "inputs": [
        {
          "indexed": true,
          "internalType": "bool",
          "name": "hasPaid",
          "type": "bool"
        },
        {
          "indexed": false,
          "internalType": "string",
          "name": "message",
          "type": "string"
        }
      ],
      "name": "PaymentStatus",
      "type": "event"
    },
    {
      "inputs": [
        {
          "internalType": "address",
          "name": "_studentAddr",
          "type": "address"
        }
      ],
      "name": "authorizeStudent",
      "outputs": [],
      "stateMutability": "nonpayable",
      "type": "function"
    },
    {
      "inputs": [
        {
          "internalType": "address payable",
          "name": "_newOwner",
          "type": "address"
        }
      ],
      "name": "changeOwner",
      "outputs": [],
      "stateMutability": "nonpayable",
      "type": "function"
    },
    {
      "inputs": [
        {
          "internalType": "address",
          "name": "_studentAddr",
          "type": "address"
        }
      ],
      "name": "deleteStudent",
      "outputs": [],
      "stateMutability": "nonpayable",
      "type": "function"
    },
    {
      "inputs": [],
      "name": "getOwner",
      "outputs": [
        {
          "internalType": "address",
          "name": "",
          "type": "address"
        }
      ],
      "stateMutability": "view",
      "type": "function"
    },
    {
      "inputs": [
        {
          "internalType": "address",
          "name": "_studentAddr",
          "type": "address"
        }
      ],
      "name": "getStudent",
      "outputs": [
        {
          "components": [
            {
              "internalType": "address",
              "name": "studentAddr",
              "type": "address"
            },
            {
              "internalType": "string",
              "name": "name",
              "type": "string"
            },
            {
              "internalType": "uint256",
              "name": "studentId",
              "type": "uint256"
            },
            {
              "internalType": "uint8",
              "name": "age",
              "type": "uint8"
            },
            {
              "internalType": "bool",
              "name": "hasPaid",
              "type": "bool"
            },
            {
              "internalType": "bool",
              "name": "isAuthorized",
              "type": "bool"
            }
          ],
          "internalType": "struct Student",
          "name": "",
          "type": "tuple"
        }
      ],
      "stateMutability": "view",
      "type": "function"
    },
    {
      "inputs": [
        {
          "internalType": "address payable",
          "name": "_newOwner",
          "type": "address"
        }
      ],
      "name": "modifyOwner",
      "outputs": [],
      "stateMutability": "nonpayable",
      "type": "function"
    },
    {
      "inputs": [
        {
          "internalType": "address",
          "name": "",
          "type": "address"
        }
      ],
      "name": "myStudentId",
      "outputs": [
        {
          "internalType": "uint32",
          "name": "",
          "type": "uint32"
        }
      ],
      "stateMutability": "view",
      "type": "function"
    },
    {
      "inputs": [],
      "name": "owner",
      "outputs": [
        {
          "internalType": "address payable",
          "name": "",
          "type": "address"
        }
      ],
      "stateMutability": "view",
      "type": "function"
    },
    {
      "inputs": [
        {
          "internalType": "address",
          "name": "",
          "type": "address"
        }
      ],
      "name": "receipt",
      "outputs": [
        {
          "internalType": "uint256",
          "name": "",
          "type": "uint256"
        }
      ],
      "stateMutability": "view",
      "type": "function"
    },
    {
      "inputs": [
        {
          "internalType": "address",
          "name": "_studentAddr",
          "type": "address"
        },
        {
          "internalType": "string",
          "name": "_name",
          "type": "string"
        },
        {
          "internalType": "uint8",
          "name": "_age",
          "type": "uint8"
        }
      ],
      "name": "registerStudent",
      "outputs": [],
      "stateMutability": "payable",
      "type": "function"
    },
    {
      "inputs": [
        {
          "internalType": "address",
          "name": "_studentAddr",
          "type": "address"
        },
        {
          "internalType": "string",
          "name": "_name",
          "type": "string"
        },
        {
          "internalType": "uint8",
          "name": "_age",
          "type": "uint8"
        }
      ],
      "name": "updateStudent",
      "outputs": [],
      "stateMutability": "nonpayable",
      "type": "function"
    },
    {
      "inputs": [],
      "name": "withdraw",
      "outputs": [],
      "stateMutability": "nonpayable",
      "type": "function"
    },
    {
      "stateMutability": "payable",
      "type": "receive"
    }
  ],
  "bytecode": "0x608060405260008060146101000a81548163ffffffff021916908363ffffffff16021790555034801561003157600080fd5b50336000806101000a81548173ffffffffffffffffffffffffffffffffffffffff021916908373ffffffffffffffffffffffffffffffffffffffff160217905550612191806100816000396000f3fe6080604052600436106100ab5760003560e01c8063730bcc5d11610064578063730bcc5d146101b6578063893d20e8146101df5780638da5cb5b1461020a57806391552b4114610235578063a6f9dae11461025e578063e35e566314610287576100b2565b806317348308146100b75780632bb55d18146100d35780633ccfd60b1461011057806340cb3462146101275780634b4165fb146101505780636b7b44d714610179576100b2565b366100b257005b600080fd5b6100d160048036038101906100cc9190611557565b6102c4565b005b3480156100df57600080fd5b506100fa60048036038101906100f591906115c6565b610679565b6040516101079190611612565b60405180910390f35b34801561011c57600080fd5b5061012561069c565b005b34801561013357600080fd5b5061014e6004803603810190610149919061166b565b6107b5565b005b34801561015c57600080fd5b5061017760048036038101906101729190611557565b61084f565b005b34801561018557600080fd5b506101a0600480360381019061019b91906115c6565b6109c5565b6040516101ad91906117f2565b60405180910390f35b3480156101c257600080fd5b506101dd60048036038101906101d891906115c6565b610b63565b005b3480156101eb57600080fd5b506101f4610def565b6040516102019190611823565b60405180910390f35b34801561021657600080fd5b5061021f610e18565b60405161022c919061184d565b60405180910390f35b34801561024157600080fd5b5061025c600480360381019061025791906115c6565b610e3c565b005b34801561026a57600080fd5b506102856004803603810190610280919061166b565b611045565b005b34801561029357600080fd5b506102ae60048036038101906102a991906115c6565b6111ff565b6040516102bb9190611877565b60405180910390f35b600073ffffffffffffffffffffffffffffffffffffffff163373ffffffffffffffffffffffffffffffffffffffff1603610333576040517f08c379a000000000000000000000000000000000000000000000000000000000815260040161032a906118ef565b60405180910390fd5b8060128160ff16101561037b576040517f08c379a00000000000000000000000000000000000000000000000000000000081526004016103729061195b565b60405180910390fd5b8260008151036103c0576040517f08c379a00000000000000000000000000000000000000000000000000000000081526004016103b7906119c7565b60405180910390fd5b60003490506000600260008873ffffffffffffffffffffffffffffffffffffffff1673ffffffffffffffffffffffffffffffffffffffff1681526020019081526020016000205490506000811461044c576040517f08c379a000000000000000000000000000000000000000000000000000000000815260040161044390611a33565b60405180910390fd5b670de0b6b3a76400008214610496576040517f08c379a000000000000000000000000000000000000000000000000000000000815260040161048d90611a9f565b60405180910390fd5b60006040518060c001604052808973ffffffffffffffffffffffffffffffffffffffff168152602001888152602001600081526020018760ff16815260200160011515815260200160001515815250905080600160008a73ffffffffffffffffffffffffffffffffffffffff1673ffffffffffffffffffffffffffffffffffffffff16815260200190815260200160002060008201518160000160006101000a81548173ffffffffffffffffffffffffffffffffffffffff021916908373ffffffffffffffffffffffffffffffffffffffff16021790555060208201518160010190816105839190611ccb565b506040820151816002015560608201518160030160006101000a81548160ff021916908360ff16021790555060808201518160030160016101000a81548160ff02191690831515021790555060a08201518160030160026101000a81548160ff02191690831515021790555090505082600260008a73ffffffffffffffffffffffffffffffffffffffff1673ffffffffffffffffffffffffffffffffffffffff16815260200190815260200160002081905550600115157f443bbc5cab10811938d842168ee6c49518a912b135b578866abdd69e319db36260405161066790611de9565b60405180910390a25050505050505050565b60036020528060005260406000206000915054906101000a900463ffffffff1681565b6000479050600081116106e4576040517f08c379a00000000000000000000000000000000000000000000000000000000081526004016106db90611e55565b60405180910390fd5b60008060009054906101000a900473ffffffffffffffffffffffffffffffffffffffff1673ffffffffffffffffffffffffffffffffffffffff168260405161072b90611ea6565b60006040518083038185875af1925050503d8060008114610768576040519150601f19603f3d011682016040523d82523d6000602084013e61076d565b606091505b50509050806107b1576040517f08c379a00000000000000000000000000000000000000000000000000000000081526004016107a890611f07565b60405180910390fd5b5050565b3373ffffffffffffffffffffffffffffffffffffffff1660008054906101000a900473ffffffffffffffffffffffffffffffffffffffff1673ffffffffffffffffffffffffffffffffffffffff1614610843576040517f08c379a000000000000000000000000000000000000000000000000000000000815260040161083a90611f73565b60405180910390fd5b61084c81611045565b50565b600073ffffffffffffffffffffffffffffffffffffffff163373ffffffffffffffffffffffffffffffffffffffff16036108be576040517f08c379a00000000000000000000000000000000000000000000000000000000081526004016108b5906118ef565b60405180910390fd5b8060128160ff161015610906576040517f08c379a00000000000000000000000000000000000000000000000000000000081526004016108fd9061195b565b60405180910390fd5b82600081510361094b576040517f08c379a0000000000000000000000000000000000000000000000000000000008152600401610942906119c7565b60405180910390fd5b6000600160008773ffffffffffffffffffffffffffffffffffffffff1673ffffffffffffffffffffffffffffffffffffffff16815260200190815260200160002090508481600101908161099f9190611ccb565b50838160030160006101000a81548160ff021916908360ff160217905550505050505050565b6109cd6112b6565b600160008373ffffffffffffffffffffffffffffffffffffffff1673ffffffffffffffffffffffffffffffffffffffff1681526020019081526020016000206040518060c00160405290816000820160009054906101000a900473ffffffffffffffffffffffffffffffffffffffff1673ffffffffffffffffffffffffffffffffffffffff1673ffffffffffffffffffffffffffffffffffffffff168152602001600182018054610a7d90611aee565b80601f0160208091040260200160405190810160405280929190818152602001828054610aa990611aee565b8015610af65780601f10610acb57610100808354040283529160200191610af6565b820191906000526020600020905b815481529060010190602001808311610ad957829003601f168201915b50505050508152602001600282015481526020016003820160009054906101000a900460ff1660ff1660ff1681526020016003820160019054906101000a900460ff161515151581526020016003820160029054906101000a900460ff1615151515815250509050919050565b3373ffffffffffffffffffffffffffffffffffffffff1660008054906101000a900473ffffffffffffffffffffffffffffffffffffffff1673ffffffffffffffffffffffffffffffffffffffff1614610bf1576040517f08c379a0000000000000000000000000000000000000000000000000000000008152600401610be890611f73565b60405180910390fd5b600073ffffffffffffffffffffffffffffffffffffffff16600160008373ffffffffffffffffffffffffffffffffffffffff1673ffffffffffffffffffffffffffffffffffffffff16815260200190815260200160002060000160009054906101000a900473ffffffffffffffffffffffffffffffffffffffff1673ffffffffffffffffffffffffffffffffffffffff1603610cc2576040517f08c379a0000000000000000000000000000000000000000000000000000000008152600401610cb990611fdf565b60405180910390fd5b600160008273ffffffffffffffffffffffffffffffffffffffff1673ffffffffffffffffffffffffffffffffffffffff168152602001908152602001600020600080820160006101000a81549073ffffffffffffffffffffffffffffffffffffffff0219169055600182016000610d399190611309565b60028201600090556003820160006101000a81549060ff02191690556003820160016101000a81549060ff02191690556003820160026101000a81549060ff02191690555050610d87611217565b600360008373ffffffffffffffffffffffffffffffffffffffff1673ffffffffffffffffffffffffffffffffffffffff16815260200190815260200160002060006101000a81548163ffffffff021916908363ffffffff160217905550610dec611230565b50565b60008060009054906101000a900473ffffffffffffffffffffffffffffffffffffffff16905090565b60008054906101000a900473ffffffffffffffffffffffffffffffffffffffff1681565b3373ffffffffffffffffffffffffffffffffffffffff1660008054906101000a900473ffffffffffffffffffffffffffffffffffffffff1673ffffffffffffffffffffffffffffffffffffffff1614610eca576040517f08c379a0000000000000000000000000000000000000000000000000000000008152600401610ec190611f73565b60405180910390fd5b670de0b6b3a7640000600260008373ffffffffffffffffffffffffffffffffffffffff1673ffffffffffffffffffffffffffffffffffffffff1681526020019081526020016000205414610f53576040517f08c379a0000000000000000000000000000000000000000000000000000000008152600401610f4a9061204b565b60405180910390fd5b6000600160008373ffffffffffffffffffffffffffffffffffffffff1673ffffffffffffffffffffffffffffffffffffffff168152602001908152602001600020905060018160030160026101000a81548160ff021916908315150217905550610fbb611217565b63ffffffff168160020181905550610fd1611273565b600060149054906101000a900463ffffffff16600360008473ffffffffffffffffffffffffffffffffffffffff1673ffffffffffffffffffffffffffffffffffffffff16815260200190815260200160002060006101000a81548163ffffffff021916908363ffffffff1602179055505050565b3373ffffffffffffffffffffffffffffffffffffffff1660008054906101000a900473ffffffffffffffffffffffffffffffffffffffff1673ffffffffffffffffffffffffffffffffffffffff16146110d3576040517f08c379a00000000000000000000000000000000000000000000000000000000081526004016110ca90611f73565b60405180910390fd5b600073ffffffffffffffffffffffffffffffffffffffff168173ffffffffffffffffffffffffffffffffffffffff1603611142576040517f08c379a0000000000000000000000000000000000000000000000000000000008152600401611139906120b7565b60405180910390fd5b8073ffffffffffffffffffffffffffffffffffffffff1660008054906101000a900473ffffffffffffffffffffffffffffffffffffffff1673ffffffffffffffffffffffffffffffffffffffff167f9aecf86140d81442289f667eb72e1202a8fbb3478a686659952e145e8531965660405160405180910390a3806000806101000a81548173ffffffffffffffffffffffffffffffffffffffff021916908373ffffffffffffffffffffffffffffffffffffffff16021790555050565b60026020528060005260406000206000915090505481565b60008060149054906101000a900463ffffffff16905090565b6000601481819054906101000a900463ffffffff168092919061125290612106565b91906101000a81548163ffffffff021916908363ffffffff16021790555050565b6000601481819054906101000a900463ffffffff16809291906112959061212f565b91906101000a81548163ffffffff021916908363ffffffff16021790555050565b6040518060c00160405280600073ffffffffffffffffffffffffffffffffffffffff1681526020016060815260200160008152602001600060ff1681526020016000151581526020016000151581525090565b50805461131590611aee565b6000825580601f106113275750611346565b601f0160209004906000526020600020908101906113459190611349565b5b50565b5b8082111561136257600081600090555060010161134a565b5090565b6000604051905090565b600080fd5b600080fd5b600073ffffffffffffffffffffffffffffffffffffffff82169050919050565b60006113a58261137a565b9050919050565b6113b58161139a565b81146113c057600080fd5b50565b6000813590506113d2816113ac565b92915050565b600080fd5b600080fd5b6000601f19601f8301169050919050565b7f4e487b7100000000000000000000000000000000000000000000000000000000600052604160045260246000fd5b61142b826113e2565b810181811067ffffffffffffffff8211171561144a576114496113f3565b5b80604052505050565b600061145d611366565b90506114698282611422565b919050565b600067ffffffffffffffff821115611489576114886113f3565b5b611492826113e2565b9050602081019050919050565b82818337600083830152505050565b60006114c16114bc8461146e565b611453565b9050828152602081018484840111156114dd576114dc6113dd565b5b6114e884828561149f565b509392505050565b600082601f830112611505576115046113d8565b5b81356115158482602086016114ae565b91505092915050565b600060ff82169050919050565b6115348161151e565b811461153f57600080fd5b50565b6000813590506115518161152b565b92915050565b6000806000606084860312156115705761156f611370565b5b600061157e868287016113c3565b935050602084013567ffffffffffffffff81111561159f5761159e611375565b5b6115ab868287016114f0565b92505060406115bc86828701611542565b9150509250925092565b6000602082840312156115dc576115db611370565b5b60006115ea848285016113c3565b91505092915050565b600063ffffffff82169050919050565b61160c816115f3565b82525050565b60006020820190506116276000830184611603565b92915050565b60006116388261137a565b9050919050565b6116488161162d565b811461165357600080fd5b50565b6000813590506116658161163f565b92915050565b60006020828403121561168157611680611370565b5b600061168f84828501611656565b91505092915050565b6116a18161139a565b82525050565b600081519050919050565b600082825260208201905092915050565b60005b838110156116e15780820151818401526020810190506116c6565b60008484015250505050565b60006116f8826116a7565b61170281856116b2565b93506117128185602086016116c3565b61171b816113e2565b840191505092915050565b6000819050919050565b61173981611726565b82525050565b6117488161151e565b82525050565b60008115159050919050565b6117638161174e565b82525050565b600060c0830160008301516117816000860182611698565b506020830151848203602086015261179982826116ed565b91505060408301516117ae6040860182611730565b5060608301516117c1606086018261173f565b5060808301516117d4608086018261175a565b5060a08301516117e760a086018261175a565b508091505092915050565b6000602082019050818103600083015261180c8184611769565b905092915050565b61181d8161139a565b82525050565b60006020820190506118386000830184611814565b92915050565b6118478161162d565b82525050565b6000602082019050611862600083018461183e565b92915050565b61187181611726565b82525050565b600060208201905061188c6000830184611868565b92915050565b600082825260208201905092915050565b7f496e76616c696420616464726573730000000000000000000000000000000000600082015250565b60006118d9600f83611892565b91506118e4826118a3565b602082019050919050565b60006020820190508181036000830152611908816118cc565b9050919050565b7f4e6f7420757020746f2061676500000000000000000000000000000000000000600082015250565b6000611945600d83611892565b91506119508261190f565b602082019050919050565b6000602082019050818103600083015261197481611938565b9050919050565b7f4e616d65206d757374206e6f7420626520656d70747900000000000000000000600082015250565b60006119b1601683611892565b91506119bc8261197b565b602082019050919050565b600060208201905081810360008301526119e0816119a4565b9050919050565b7f596f752068617665207265676973746572656400000000000000000000000000600082015250565b6000611a1d601383611892565b9150611a28826119e7565b602082019050919050565b60006020820190508181036000830152611a4c81611a10565b9050919050565b7f596f75206d757374207061792065786163746c79203120657468000000000000600082015250565b6000611a89601a83611892565b9150611a9482611a53565b602082019050919050565b60006020820190508181036000830152611ab881611a7c565b9050919050565b7f4e487b7100000000000000000000000000000000000000000000000000000000600052602260045260246000fd5b60006002820490506001821680611b0657607f821691505b602082108103611b1957611b18611abf565b5b50919050565b60008190508160005260206000209050919050565b60006020601f8301049050919050565b600082821b905092915050565b600060088302611b817fffffffffffffffffffffffffffffffffffffffffffffffffffffffffffffffff82611b44565b611b8b8683611b44565b95508019841693508086168417925050509392505050565b6000819050919050565b6000611bc8611bc3611bbe84611726565b611ba3565b611726565b9050919050565b6000819050919050565b611be283611bad565b611bf6611bee82611bcf565b848454611b51565b825550505050565b600090565b611c0b611bfe565b611c16818484611bd9565b505050565b5b81811015611c3a57611c2f600082611c03565b600181019050611c1c565b5050565b601f821115611c7f57611c5081611b1f565b611c5984611b34565b81016020851015611c68578190505b611c7c611c7485611b34565b830182611c1b565b50505b505050565b600082821c905092915050565b6000611ca260001984600802611c84565b1980831691505092915050565b6000611cbb8383611c91565b9150826002028217905092915050565b611cd4826116a7565b67ffffffffffffffff811115611ced57611cec6113f3565b5b611cf78254611aee565b611d02828285611c3e565b600060209050601f831160018114611d355760008415611d23578287015190505b611d2d8582611caf565b865550611d95565b601f198416611d4386611b1f565b60005b82811015611d6b57848901518255600182019150602085019450602081019050611d46565b86831015611d885784890151611d84601f891682611c91565b8355505b6001600288020188555050505b505050505050565b7f5061796d656e74207375636365737366756c2121000000000000000000000000600082015250565b6000611dd3601483611892565b9150611dde82611d9d565b602082019050919050565b60006020820190508181036000830152611e0281611dc6565b9050919050565b7f496e73756666696369656e742066756e64730000000000000000000000000000600082015250565b6000611e3f601283611892565b9150611e4a82611e09565b602082019050919050565b60006020820190508181036000830152611e6e81611e32565b9050919050565b600081905092915050565b50565b6000611e90600083611e75565b9150611e9b82611e80565b600082019050919050565b6000611eb182611e83565b9150819050919050565b7f4661696c656420746f2073656e64204574686572000000000000000000000000600082015250565b6000611ef1601483611892565b9150611efc82611ebb565b602082019050919050565b60006020820190508181036000830152611f2081611ee4565b9050919050565b7f43616c6c6572206e6f74206f776e657200000000000000000000000000000000600082015250565b6000611f5d601083611892565b9150611f6882611f27565b602082019050919050565b60006020820190508181036000830152611f8c81611f50565b9050919050565b7f53747564656e7420646f6573206e6f7420657869737400000000000000000000600082015250565b6000611fc9601683611892565b9150611fd482611f93565b602082019050919050565b60006020820190508181036000830152611ff881611fbc565b9050919050565b7f476f20616e642072656769737465720000000000000000000000000000000000600082015250565b6000612035600f83611892565b915061204082611fff565b602082019050919050565b6000602082019050818103600083015261206481612028565b9050919050565b7f4f776e65722063616e6e6f742062652061646472657373207a65726f00000000600082015250565b60006120a1601c83611892565b91506120ac8261206b565b602082019050919050565b600060208201905081810360008301526120d081612094565b9050919050565b7f4e487b7100000000000000000000000000000000000000000000000000000000600052601160045260246000fd5b6000612111826115f3565b915060008203612124576121236120d7565b5b600182039050919050565b600061213a826115f3565b915063ffffffff82036121505761214f6120d7565b5b60018201905091905056fea26469706673582212206e2de7b5adee3a38b51ee2f1bc755b1341d5d216c2ea23596f3f75e81e52c9ac64736f6c63430008180033",
  "linkReferences": {},
  "deployedLinkReferences": {}
}