{
  "_format": "hh-sol-artifact-1",
  "contractName": "Counter",
  "sourceName": "contracts/Counter.sol",
  "abi": [
    {
      "anonymous": false,
      "inputs": [
        {
          "indexed": false,
          "internalType": "uint256",
          "name": "amount",
          "type": "uint256"
        },
        {
          "indexed": false,
          "internalType": "uint256",
          "name": "when",
          "type": "uint256"
        }
      ],
      "name": "CountDecreased",
      "type": "event"
    },
    {
      "anonymous": false,
      "inputs": [
        {
          "indexed": false,
          "internalType": "uint256",
          "name": "amount",
          "type": "uint256"
        },
        {
          "indexed": false,
          "internalType": "uint256",
          "name": "when",
          "type": "uint256"
        }
      ],
      "name": "CountIncreased",
      "type": "event"
    },
    {
      "inputs": [],
      "name": "count",
      "outputs": [
        {
          "internalType": "uint256",
          "name": "",
          "type": "uint256"
        }
      ],
      "stateMutability": "view",
      "type": "function"
    },
    {
      "inputs": [],
      "name": "decreaseByOne",
      "outputs": [],
      "stateMutability": "nonpayable",
      "type": "function"
    },
    {
      "inputs": [],
      "name": "increaseByOne",
      "outputs": [],
      "stateMutability": "nonpayable",
      "type": "function"
    }
  ],
  "bytecode": "0x608060405234801561001057600080fd5b50610315806100206000396000f3fe608060405234801561001057600080fd5b50600436106100415760003560e01c806306661abd1461004657806393158b0e14610064578063974ba1e21461006e575b600080fd5b61004e610078565b60405161005b9190610187565b60405180910390f35b61006c61007e565b005b610076610118565b005b60005481565b60008054116100c2576040517f08c379a00000000000000000000000000000000000000000000000000000000081526004016100b9906101ff565b60405180910390fd5b60016000808282546100d4919061024e565b925050819055507f9f823ef4ff6c0c3cc6b78e145c4a8f0eb7d3e580edcbcac1f96a5a2b2de7b8136000544260405161010e929190610282565b60405180910390a1565b600160008082825461012a91906102ab565b925050819055507f4d83071bd939c85dc5ac3b242dd30a607f340a2b0671e8d3e3a3878b5f05e63360005442604051610164929190610282565b60405180910390a1565b6000819050919050565b6101818161016e565b82525050565b600060208201905061019c6000830184610178565b92915050565b600082825260208201905092915050565b7f63616e6e6f742064656372656173652062656c6f772030000000000000000000600082015250565b60006101e96017836101a2565b91506101f4826101b3565b602082019050919050565b60006020820190508181036000830152610218816101dc565b9050919050565b7f4e487b7100000000000000000000000000000000000000000000000000000000600052601160045260246000fd5b60006102598261016e565b91506102648361016e565b925082820390508181111561027c5761027b61021f565b5b92915050565b60006040820190506102976000830185610178565b6102a46020830184610178565b9392505050565b60006102b68261016e565b91506102c18361016e565b92508282019050808211156102d9576102d861021f565b5b9291505056fea264697066735822122057e57bbc1bd1b3d5e9f56300ed1826cf9834ec7d793a114a9ebad7564559d8bc64736f6c63430008180033",
  "linkReferences": {},
  "deployedLinkReferences": {}
}